{
    "contractName": "BondingCurve",
    "abi": [
        {
            "constant": true,
            "inputs": [],
            "name": "reserveRatio",
            "outputs": [
                {
                    "name": "",
                    "type": "uint32"
                }
            ],
            "payable": false,
            "stateMutability": "view",
            "type": "function"
        },
        {
            "constant": true,
            "inputs": [],
            "name": "totalSupply",
            "outputs": [
                {
                    "name": "",
                    "type": "uint256"
                }
            ],
            "payable": false,
            "stateMutability": "view",
            "type": "function"
        },
        {
            "constant": true,
            "inputs": [],
            "name": "ndrops",
            "outputs": [
                {
                    "name": "",
                    "type": "uint256"
                }
            ],
            "payable": false,
            "stateMutability": "view",
            "type": "function"
        },
        {
            "constant": true,
            "inputs": [
                {
                    "name": "_supply",
                    "type": "uint256"
                },
                {
                    "name": "_connectorBalance",
                    "type": "uint256"
                },
                {
                    "name": "_connectorWeight",
                    "type": "uint32"
                },
                {
                    "name": "_depositAmount",
                    "type": "uint256"
                }
            ],
            "name": "calculatePurchaseReturn",
            "outputs": [
                {
                    "name": "",
                    "type": "uint256"
                }
            ],
            "payable": false,
            "stateMutability": "view",
            "type": "function"
        },
        {
            "constant": true,
            "inputs": [
                {
                    "name": "_supply",
                    "type": "uint256"
                },
                {
                    "name": "_connectorBalance",
                    "type": "uint256"
                },
                {
                    "name": "_connectorWeight",
                    "type": "uint32"
                },
                {
                    "name": "_sellAmount",
                    "type": "uint256"
                }
            ],
            "name": "calculateSaleReturn",
            "outputs": [
                {
                    "name": "",
                    "type": "uint256"
                }
            ],
            "payable": false,
            "stateMutability": "view",
            "type": "function"
        },
        {
            "constant": true,
            "inputs": [],
            "name": "version",
            "outputs": [
                {
                    "name": "",
                    "type": "string"
                }
            ],
            "payable": false,
            "stateMutability": "view",
            "type": "function"
        },
        {
            "constant": false,
            "inputs": [],
            "name": "renounceOwnership",
            "outputs": [],
            "payable": false,
            "stateMutability": "nonpayable",
            "type": "function"
        },
        {
            "constant": true,
            "inputs": [],
            "name": "owner",
            "outputs": [
                {
                    "name": "",
                    "type": "address"
                }
            ],
            "payable": false,
            "stateMutability": "view",
            "type": "function"
        },
        {
            "constant": true,
            "inputs": [],
            "name": "poolBalance",
            "outputs": [
                {
                    "name": "",
                    "type": "uint256"
                }
            ],
            "payable": false,
            "stateMutability": "view",
            "type": "function"
        },
        {
            "constant": true,
            "inputs": [],
            "name": "mToken",
            "outputs": [
                {
                    "name": "",
                    "type": "address"
                }
            ],
            "payable": false,
            "stateMutability": "view",
            "type": "function"
        },
        {
            "constant": true,
            "inputs": [],
            "name": "nOcean",
            "outputs": [
                {
                    "name": "",
                    "type": "uint256"
                }
            ],
            "payable": false,
            "stateMutability": "view",
            "type": "function"
        },
        {
            "constant": true,
            "inputs": [],
            "name": "tokensToMint",
            "outputs": [
                {
                    "name": "",
                    "type": "uint256"
                }
            ],
            "payable": false,
            "stateMutability": "view",
            "type": "function"
        },
        {
            "constant": true,
            "inputs": [],
            "name": "ghostSupply",
            "outputs": [
                {
                    "name": "",
                    "type": "uint256"
                }
            ],
            "payable": false,
            "stateMutability": "view",
            "type": "function"
        },
        {
            "constant": false,
            "inputs": [
                {
                    "name": "_newOwner",
                    "type": "address"
                }
            ],
            "name": "transferOwnership",
            "outputs": [],
            "payable": false,
            "stateMutability": "nonpayable",
            "type": "function"
        },
        {
            "constant": true,
            "inputs": [],
            "name": "scale",
            "outputs": [
                {
                    "name": "",
                    "type": "uint256"
                }
            ],
            "payable": false,
            "stateMutability": "view",
            "type": "function"
        },
        {
            "inputs": [
                {
                    "name": "_tokenAddress",
                    "type": "address"
                }
            ],
            "payable": false,
            "stateMutability": "nonpayable",
            "type": "constructor"
        },
        {
            "anonymous": false,
            "inputs": [
                {
                    "indexed": true,
                    "name": "_requester",
                    "type": "address"
                },
                {
                    "indexed": false,
                    "name": "amount",
                    "type": "uint256"
                }
            ],
            "name": "TokenWithdraw",
            "type": "event"
        },
        {
            "anonymous": false,
            "inputs": [
                {
                    "indexed": true,
                    "name": "_requester",
                    "type": "address"
                },
                {
                    "indexed": false,
                    "name": "_ocn",
                    "type": "uint256"
                },
                {
                    "indexed": false,
                    "name": "_drops",
                    "type": "uint256"
                },
                {
                    "indexed": false,
                    "name": "_price",
                    "type": "uint256"
                }
            ],
            "name": "TokenBuyDrops",
            "type": "event"
        },
        {
            "anonymous": false,
            "inputs": [
                {
                    "indexed": true,
                    "name": "_requester",
                    "type": "address"
                },
                {
                    "indexed": false,
                    "name": "_ocn",
                    "type": "uint256"
                },
                {
                    "indexed": false,
                    "name": "_drops",
                    "type": "uint256"
                },
                {
                    "indexed": false,
                    "name": "_price",
                    "type": "uint256"
                }
            ],
            "name": "TokenSellDrops",
            "type": "event"
        },
        {
            "anonymous": false,
            "inputs": [
                {
                    "indexed": true,
                    "name": "previousOwner",
                    "type": "address"
                }
            ],
            "name": "OwnershipRenounced",
            "type": "event"
        },
        {
            "anonymous": false,
            "inputs": [
                {
                    "indexed": true,
                    "name": "previousOwner",
                    "type": "address"
                },
                {
                    "indexed": true,
                    "name": "newOwner",
                    "type": "address"
                }
            ],
            "name": "OwnershipTransferred",
            "type": "event"
        },
        {
            "constant": true,
            "inputs": [],
            "name": "dropsBalance",
            "outputs": [
                {
                    "name": "",
                    "type": "uint256"
                }
            ],
            "payable": false,
            "stateMutability": "view",
            "type": "function"
        },
        {
            "constant": true,
            "inputs": [],
            "name": "dropsSupply",
            "outputs": [
                {
                    "name": "",
                    "type": "uint256"
                }
            ],
            "payable": false,
            "stateMutability": "view",
            "type": "function"
        },
        {
            "constant": true,
            "inputs": [],
            "name": "tokenBalance",
            "outputs": [
                {
                    "name": "",
                    "type": "uint256"
                }
            ],
            "payable": false,
            "stateMutability": "view",
            "type": "function"
        },
        {
            "constant": false,
            "inputs": [
                {
                    "name": "amount",
                    "type": "uint256"
                }
            ],
            "name": "requestTokens",
            "outputs": [
                {
                    "name": "",
                    "type": "uint256"
                }
            ],
            "payable": false,
            "stateMutability": "nonpayable",
            "type": "function"
        },
        {
            "constant": false,
            "inputs": [],
            "name": "withdraw",
            "outputs": [
                {
                    "name": "",
                    "type": "bool"
                }
            ],
            "payable": false,
            "stateMutability": "nonpayable",
            "type": "function"
        },
        {
            "constant": false,
            "inputs": [
                {
                    "name": "_ocn",
                    "type": "uint256"
                }
            ],
            "name": "buyDrops",
            "outputs": [
                {
                    "name": "_drops",
                    "type": "uint256"
                }
            ],
            "payable": false,
            "stateMutability": "nonpayable",
            "type": "function"
        },
        {
            "constant": false,
            "inputs": [
                {
                    "name": "_drops",
                    "type": "uint256"
                }
            ],
            "name": "sellDrops",
            "outputs": [
                {
                    "name": "_ocn",
                    "type": "uint256"
                }
            ],
            "payable": false,
            "stateMutability": "nonpayable",
            "type": "function"
        }
    ],
    "bytecode": "0x60c0604052600360808190527f302e33000000000000000000000000000000000000000000000000000000000060a090815262000040916000919062000965565b506040805180820190915260038082527f302e3300000000000000000000000000000000000000000000000000000000006020909201918252620000879160819162000965565b50670de0b6b3a764000060868190556064608755600a60888190556089829055608a805463ffffffff1916620dbba01790556000608b55608c55608d55348015620000d157600080fd5b5060405160208062001ea283398101604090815290516001606060020a641c35fedd1502036021556001605e60020a646c3390ecc902036022556001606160020a640cf801476102036023556001605f60020a6431bdb23e1d02036024556001605b60020a6502fb1d8fe08302036025556001605a60020a6505b771955b3702036026556001605960020a650af67a93bb5102036027556001605860020a6515060c256cb302036028556001605860020a651428a2f98d7302036029556001605660020a654d51566397090203602a556001605560020a65944620b0e70f0203602b557011c592761c666fffffffffffffffffffff602c5570110a688680a757ffffffffffffffffffff602d55701056f1b5bedf77ffffffffffffffffffff602e55700faadceceeff8bffffffffffffffffffff602f55700f05dc6b27edadffffffffffffffffffff603055700e67a5a25da4107fffffffffffffffffff603155700dcff115b14eedffffffffffffffffffff603255700d3e7a392431239fffffffffffffffffff603355700cb2ff529eb71e4fffffffffffffffffff603455700c2d415c3db974afffffffffffffffffff603555700bad03e7d883f69bffffffffffffffffff603655700b320d03b2c343d5ffffffffffffffffff603755700abc25204e02828dffffffffffffffffff603855700a4b16f74ee4bb207fffffffffffffffff6039557009deaf736ac1f569ffffffffffffffffff603a55700976bd9952c7aa957fffffffffffffffff603b557009131271922eaa606fffffffffffffffff603c557008b380f3558668c46fffffffffffffffff603d55700857ddf0117efa215bffffffffffffffff603e556001608360020a03603f557007abbf6f6abb9d087fffffffffffffffff90915570075af62cbac95f7dfa7fffffffffffffff60415570070d7fb7452e187ac13fffffffffffffff6042557006c3390ecc8af379295fffffffffffffff60435570067c00a3b07ffc01fd6fffffffffffffff604455700637b647c39cbb9d3d27ffffffffffffff6045557005f63b1fc104dbd39587ffffffffffffff6046557005b771955b36e12f7235ffffffffffffff60475570057b3d49dda84556d6f6ffffffffffffff60485570054183095b2c8ececf30ffffffffffffff60495570050a28be635ca2b888f77fffffffffffff604a557004d5156639708c9db33c3fffffffffffff604b557004a23105873875bd52dfdfffffffffffff604c55700471649d87199aa990756fffffffffffff604d557004429a21a029d4c1457cfbffffffffffff604e55700415bc6d6fb7dd71af2cb3ffffffffffff604f557003eab73b3bbfe282243ce1ffffffffffff6050557003c1771ac9fb6b4c18e229ffffffffffff605155700399e96897690418f785257fffffffffff605255700373fc456c53bb779bf0ea9fffffffffff60535570034f9e8e490c48e67e6ab8bfffffffffff60545570032cbfd4a7adc790560b3337ffffffffff60555570030b50570f6e5d2acca94613ffffffffff6056557002eb40f9f620fda6b56c2861ffffffffff6057557002cc8340ecb0d0f520a6af58ffffffffff6058557002af09481380a0a35cf1ba02ffffffffff605955700292c5bdd3b92ec810287b1b3fffffffff605a55700277abdcdab07d5a77ac6d6b9fffffffff605b5570025daf6654b1eaa55fd64df5efffffffff605c55700244c49c648baa98192dce88b7ffffffff605d5570022ce03cd5619a311b2471268bffffffff605e55700215f77c045fbe885654a44a0fffffffff605f556001608160020a036060557001eaefdbdaaee7421fc4d3ede5ffffffff6061557001d6bd8b2eb257df7e8ca57b09bfffffff6062557001c35fedd14b861eb0443f7f133fffffff6063557001b0ce43b322bcde4a56e8ada5afffffff60645570019f0028ec1fff007f5a195a39dfffffff60655570018ded91f0e72ee74f49b15ba527ffffff60665570017d8ec7f04136f4e5615fd41a63ffffff60675570016ddc6556cdb84bdc8d12d22e6fffffff60685570015ecf52776a1155b5bd8395814f7fffff60695570015060c256cb23b3b3cc3754cf40ffffff606a557001428a2f98d728ae223ddab715be3fffff606b5570013545598e5c23276ccf0ede68034fffff606c557001288c4161ce1d6f54b7f61081194fffff606d5570011c592761c666aa641d5a01a40f17ffff606e55700110a688680a7530515f3e6e6cfdcdffff606f557001056f1b5bedf75c6bcb2ce8aed428ffff6070556ffaadceceeff8a0890f3875f008277fff6071556ff05dc6b27edad306388a600f6ba0bfff6072556fe67a5a25da41063de1495d5b18cdbfff6073556fdcff115b14eedde6fc3aa5353f2e4fff6074556fd3e7a3924312399f9aae2e0f868f8fff6075556fcb2ff529eb71e41582cccd5a1ee26fff6076556fc2d415c3db974ab32a51840c0b67edff6077556fbad03e7d883f69ad5b0a186184e06bff6078556fb320d03b2c343d4829abd6075f0cc5ff6079556fabc25204e02828d73c6e80bcdb1a95bf607a556fa4b16f74ee4bb2040a1ec6c15fbbf2df607b556f9deaf736ac1f569deb1b5ae3f36c130f607c556f976bd9952c7aa957f5937d790ef65037607d556f9131271922eaa6064b73a22d0bd4f2bf607e556f8b380f3558668c46c91c49a2f8e967b9607f556f857ddf0117efa215952912839f6473e660805560828054600160a060020a03191633179055600160a060020a0381161515620008b157600080fd5b60838054600160a060020a031916600160a060020a038381169190911791829055604080517f718da7ee0000000000000000000000000000000000000000000000000000000081523060048201529051929091169163718da7ee916024808201926020929091908290030181600087803b1580156200092f57600080fd5b505af115801562000944573d6000803e3d6000fd5b505050506040513d60208110156200095b57600080fd5b5062000a0a915050565b828054600181600116156101000203166002900490600052602060002090601f016020900481019282601f10620009a857805160ff1916838001178555620009d8565b82800160010185558215620009d8579182015b82811115620009d8578251825591602001919060010190620009bb565b50620009e6929150620009ea565b5090565b62000a0791905b80821115620009e65760008155600101620009f1565b90565b6114888062000a1a6000396000f3006080604052600436106101275763ffffffff7c01000000000000000000000000000000000000000000000000000000006000350416630c7d5cd8811461012c578063101f7d571461015a57806315f500c21461018157806318160ddd146101995780631f64e447146101ae57806329a00e7c146101c35780633ccfd60b146101ea57806349f9b0f71461021357806354fd4d501461023a5780636eaa5c22146102c4578063715018a6146102d9578063878f6b06146102f05780638da5cb5b1461030857806396365d44146103395780639e1a4d191461034e578063c3b6f93914610363578063c9945f1314610378578063cbafee8a1461038d578063e3544607146103a2578063eef9c27c146103b7578063f2fde38b146103cf578063f51e181a146103f0575b600080fd5b34801561013857600080fd5b50610141610405565b6040805163ffffffff9092168252519081900360200190f35b34801561016657600080fd5b5061016f610411565b60408051918252519081900360200190f35b34801561018d57600080fd5b5061016f600435610433565b3480156101a557600080fd5b5061016f61056e565b3480156101ba57600080fd5b5061016f610574565b3480156101cf57600080fd5b5061016f60043560243563ffffffff6044351660643561057a565b3480156101f657600080fd5b506101ff61065f565b604080519115158252519081900360200190f35b34801561021f57600080fd5b5061016f60043560243563ffffffff60443516606435610756565b34801561024657600080fd5b5061024f610852565b6040805160208082528351818301528351919283929083019185019080838360005b83811015610289578181015183820152602001610271565b50505050905090810190601f1680156102b65780820380516001836020036101000a031916815260200191505b509250505060405180910390f35b3480156102d057600080fd5b5061016f6108e0565b3480156102e557600080fd5b506102ee6108ea565b005b3480156102fc57600080fd5b5061016f600435610958565b34801561031457600080fd5b5061031d610b8b565b60408051600160a060020a039092168252519081900360200190f35b34801561034557600080fd5b5061016f610b9a565b34801561035a57600080fd5b5061016f610ba0565b34801561036f57600080fd5b5061031d610bb3565b34801561038457600080fd5b5061016f610bc2565b34801561039957600080fd5b5061016f610bc8565b3480156103ae57600080fd5b5061016f610bce565b3480156103c357600080fd5b5061016f600435610bd4565b3480156103db57600080fd5b506102ee600160a060020a0360043516610c8a565b3480156103fc57600080fd5b5061016f610cad565b608a5463ffffffff1681565b600033151561041f57600080fd5b503360009081526085602052604090205490565b600080608654610461608c54608654608d5481151561044e57fe5b608a549190049063ffffffff1687610756565b608c5491029150610478908463ffffffff610cb316565b608c55608d5461048e908263ffffffff610cb316565b608d556087546104a4908463ffffffff610cb316565b6087556089546104ba908263ffffffff610cb316565b608955336000908152608460205260409020546104dd908263ffffffff610cca16565b33600090815260846020908152604080832093909355608590522054610509908463ffffffff610cb316565b336000818152608560205260409020919091557f83012f240e057db770ba6087edbe0353d4c2a904f94357f4ded5c40714eac4c08285808281151561054a57fe5b6040805194855260208501939093520482820152519081900360600190a292915050565b60875481565b608c5481565b600080600080600080891180156105915750600088115b80156105a3575060008763ffffffff16115b80156105b85750620f424063ffffffff881611155b15156105c357600080fd5b8515156105d35760009450610653565b63ffffffff8716620f4240141561060b57610604886105f88b8963ffffffff610cd716565b9063ffffffff610d0016565b9450610653565b61061b868963ffffffff610cca16565b915061062c828989620f4240610d15565b909450925060ff83166106458a8663ffffffff610cd716565b9060020a9004905088810394505b50505050949350505050565b33600081815260846020908152604080832080549084905560835482517fa9059cbb000000000000000000000000000000000000000000000000000000008152600481019690965260248601829052915193949093600160a060020a039092169263a9059cbb9260448084019382900301818887803b1580156106e157600080fd5b505af11580156106f5573d6000803e3d6000fd5b505050506040513d602081101561070b57600080fd5b5051151561071857600080fd5b60408051828152905133917f68577e4d693c1b056a60bc4e39438810239a0bfe64869c4eb7e3baebb5f65634919081900360200190a2600191505090565b60008060008060008060008a11801561076f5750600089115b8015610781575060008863ffffffff16115b80156107965750620f424063ffffffff891611155b80156107a25750898711155b15156107ad57600080fd5b8615156107bd5760009550610845565b898714156107cd57889550610845565b63ffffffff8816620f424014156107f9576107f28a6105f88b8a63ffffffff610cd716565b9550610845565b868a03925061080d8a84620f42408b610d15565b9095509350610822898663ffffffff610cd716565b91505060ff831660020a8802610842856105f8848463ffffffff610cb316565b95505b5050505050949350505050565b6081805460408051602060026001851615610100026000190190941693909304601f810184900484028201840190925281815292918301828280156108d85780601f106108ad576101008083540402835291602001916108d8565b820191906000526020600020905b8154815290600101906020018083116108bb57829003601f168201915b505050505081565b608854608c540390565b608254600160a060020a0316331461090157600080fd5b608254604051600160a060020a03909116907ff8df31144d9c2f0f6b59d69b8b98abd5459d07f2742c4df920b25aae33c6482090600090a26082805473ffffffffffffffffffffffffffffffffffffffff19169055565b6000610996608c54608654608d5481151561096f57fe5b04608a60009054906101000a900463ffffffff166086548681151561099057fe5b0461057a565b608b819055608c546109ad9163ffffffff610cca16565b608c55608d546109c3908363ffffffff610cca16565b608d55336000908152608460205260409020546109e6908363ffffffff610cca16565b3360008181526084602090815260408083209490945560835484517f23b872dd0000000000000000000000000000000000000000000000000000000081526004810194909452306024850152604484018790529351600160a060020a03909416936323b872dd93606480820194918390030190829087803b158015610a6a57600080fd5b505af1158015610a7e573d6000803e3d6000fd5b505050506040513d6020811015610a9457600080fd5b50511515610aa157600080fd5b608b54608754610ab69163ffffffff610cca16565b608755608954610acc908363ffffffff610cca16565b60895533600090815260846020526040902054610aef908363ffffffff610cb316565b33600090815260846020908152604080832093909355608b54608590915291902054610b209163ffffffff610cca16565b33600081815260856020526040902091909155608b547f04b6655d1eed78cc9a68dbe5650a9f4e8feb2803c74da054d3f502eff69c3a9f9084908082811515610b6557fe5b6040805194855260208501939093520482820152519081900360600190a25050608b5490565b608254600160a060020a031681565b60895481565b3360009081526084602052604090205490565b608354600160a060020a031681565b608d5481565b608b5481565b60885481565b6000331515610be257600080fd5b608354604080517fa9059cbb000000000000000000000000000000000000000000000000000000008152336004820152602481018590529051600160a060020a039092169163a9059cbb916044808201926020929091908290030181600087803b158015610c4f57600080fd5b505af1158015610c63573d6000803e3d6000fd5b505050506040513d6020811015610c7957600080fd5b50511515610c8657600080fd5b5090565b608254600160a060020a03163314610ca157600080fd5b610caa81610d6e565b50565b60865481565b600082821115610cbf57fe5b508082035b92915050565b81810182811015610cc457fe5b6000821515610ce857506000610cc4565b50818102818382811515610cf857fe5b0414610cc457fe5b60008183811515610d0d57fe5b049392505050565b6000806000808463ffffffff168663ffffffff16610d338a8a610dec565b02811515610d3d57fe5b049150610d4982610f2f565b9050610d6160ff607f8390031660020a830482610fc6565b9890975095505050505050565b600160a060020a0381161515610d8357600080fd5b608254604051600160a060020a038084169216907f8be0079c531659141344cd1fd0a4f28419497f9722a3daafe3b4186f6b6457e090600090a36082805473ffffffffffffffffffffffffffffffffffffffff1916600160a060020a0392909216919091179055565b6000808080807001ffffffffffffffffffffffffffffffff871115610e0d57fe5b60009350856f800000000000000000000000000000008802811515610e2e57fe5b0492507001000000000000000000000000000000008310610e8757610e646f8000000000000000000000000000000084046113e9565b60ff81166f800000000000000000000000000000008102955060020a9093049291505b6f80000000000000000000000000000000831115610efe5750607f5b60008160ff161115610efe576f800000000000000000000000000000008380020492507001000000000000000000000000000000008310610ef55760ff600019820116600290810a9490940193909204915b60001901610ea3565b6f040000000000000000000000000000006f02c5c85fdf473de6af278ece600fcbda85020494505050505092915050565b60006020607f825b8160ff168360010160ff161015610f7c57600260ff8484011604905084600160ff831660808110610f6457fe5b015410610f7357809250610f77565b8091505b610f37565b84600160ff841660808110610f8d57fe5b015410610f9c57819350610fbe565b84600160ff851660808110610fad57fe5b015410610fbc57829350610fbe565bfe5b505050919050565b6000806000849150600090508360ff168583029060020a90049150816f03442c4e6074a82f1797f72ac000000002810190508360ff168583029060020a90049150816f0116b96f757c380fb287fd0e4000000002810190508360ff168583029060020a90049150816e45ae5bdd5f0e03eca1ff439000000002810190508360ff168583029060020a90049150816e0defabf91302cd95b9ffda5000000002810190508360ff168583029060020a90049150816e02529ca9832b22439efff9b800000002810190508360ff168583029060020a90049150816d54f1cf12bd04e516b6da8800000002810190508360ff168583029060020a90049150816d0a9e39e257a09ca2d6db5100000002810190508360ff168583029060020a90049150816d012e066e7b839fa050c30900000002810190508360ff168583029060020a90049150816c1e33d7d926c329a1ad1a80000002810190508360ff168583029060020a90049150816c02bee513bdb4a6b19b5f80000002810190508360ff168583029060020a90049150816b3a9316fa79b88eccf2a0000002810190508360ff168583029060020a90049150816b048177ebe1fa81237520000002810190508360ff168583029060020a90049150816a5263fe90242dcbacf0000002810190508360ff168583029060020a90049150816a057e22099c030d9410000002810190508360ff168583029060020a90049150816957e22099c030d941000002810190508360ff168583029060020a900491508169052b6b5456997631000002810190508360ff168583029060020a9004915081684985f67696bf74800002810190508360ff168583029060020a90049150816803dea12ea99e49800002810190508360ff168583029060020a90049150816731880f2214b6e00002810190508360ff168583029060020a900491508167025bcff56eb3600002810190508360ff168583029060020a9004915081661b722e10ab100002810190508360ff168583029060020a90049150816601317c7007700002810190508360ff168583029060020a9004915081650cba84aafa0002810190508360ff168583029060020a90049150816482573a0a0002810190508360ff168583029060020a90049150816405035ad90002810190508360ff168583029060020a9004915081632f881b0002810190508360ff168583029060020a90049150816301b2934002810190508360ff168583029060020a9004915081620efc4002810190508360ff168583029060020a9004915081617fe002810190508360ff168583029060020a900491508161042002810190508360ff168583029060020a9004915081602102810190508360ff168583029060020a9004915081600102810190508360ff1660019060020a02856f0688589cc0e9505e2f2fee5580000000838115156113dd57fe5b04010195945050505050565b6000808281610100821015611419575b600182111561141457600192909201916002909104906113f9565b611453565b5060805b60008160ff1611156114535760ff811660020a8210611446579182179160ff811660020a909104905b600260ff9091160461141d565b509093925050505600a165627a7a7230582072ed9db9a4cc4f4406db5c8f3f7c851f952238e001813e20e6ad9a425a60ba9a0029",
    "source": "pragma solidity ^0.4.24;\n\nimport './token/Token.sol';\nimport './bondingCurve/BancorFormula.sol';\n\nimport 'openzeppelin-solidity/contracts/math/SafeMath.sol';\nimport 'openzeppelin-solidity/contracts/ownership/Ownable.sol';\n\ncontract BondingCurve is BancorFormula, Ownable {\n\n    using SafeMath for uint256;\n    using SafeMath for uint;\n\n    // global variables\n    Token  public  mToken;\n    mapping (address => uint256) balances;\n    mapping (address => uint256) drops;\n\n    // bonding Curve\n    uint256 public scale = 10 ** 18;\n    uint256 public totalSupply = 100;\n    uint256 public ghostSupply = 10;\n    uint256 public poolBalance = 1 * scale;\n    uint32  public reserveRatio = 900000;\n    uint256 public tokensToMint = 0;\n    uint256 public ndrops = ghostSupply;\n    uint256 public nOcean = 1 * scale;\n\n    event TokenWithdraw(address indexed _requester, uint256 amount);\n    event TokenBuyDrops(address indexed _requester, uint256 _ocn, uint256 _drops, uint256 _price);\n    event TokenSellDrops(address indexed _requester, uint256 _ocn, uint256 _drops, uint256 _price);\n\n\n    ///////////////////////////////////////////////////////////////////\n    //  Query function\n    ///////////////////////////////////////////////////////////////////\n    function dropsBalance() public view returns (uint256){\n        require(msg.sender != 0x0);\n        return drops[msg.sender];\n    }\n\n    function dropsSupply() public view returns (uint256){\n        return ndrops - ghostSupply;\n    }\n\n    function tokenBalance() public view returns (uint256) {\n        return balances[msg.sender];\n    }\n    ///////////////////////////////////////////////////////////////////\n    //  Constructor function\n    ///////////////////////////////////////////////////////////////////\n    // 1. constructor\n    constructor(address _tokenAddress) public {\n        require(_tokenAddress != address(0));\n        // instantiate deployed Ocean token contract\n        mToken = Token(_tokenAddress);\n        // set the token receiver to be marketplace\n        mToken.setReceiver(address(this));\n    }\n\n    // 2. request initial fund transfer\n    function requestTokens(uint256 amount) public returns (uint256) {\n        require(msg.sender != 0x0);\n        require(mToken.transfer(msg.sender, amount));\n        return amount;\n    }\n\n\n    // 5. withdraw\n    function withdraw() public returns (bool) {\n        uint256 amount = balances[msg.sender];\n        balances[msg.sender] = 0;\n        require(mToken.transfer(msg.sender, amount));\n        emit TokenWithdraw(msg.sender, amount);\n        return true;\n    }\n\n    ///////////////////////////////////////////////////////////////////\n    // Bonding Curve Module\n    ///////////////////////////////////////////////////////////////////\n    function buyDrops(uint256 _ocn) public returns (uint256 _drops) {\n        tokensToMint = calculatePurchaseReturn(ndrops, nOcean / scale, reserveRatio, _ocn / scale);\n        ndrops = ndrops.add(tokensToMint);\n        nOcean = nOcean.add(_ocn);\n\n        balances[msg.sender] = balances[msg.sender].add(_ocn);\n        require(mToken.transferFrom(msg.sender, address(this), _ocn));\n\n        totalSupply = totalSupply.add(tokensToMint);\n        poolBalance = poolBalance.add(_ocn);\n\n        balances[msg.sender] = balances[msg.sender].sub(_ocn);\n        drops[msg.sender] = drops[msg.sender].add(tokensToMint);\n\n        emit TokenBuyDrops(msg.sender, _ocn, tokensToMint, _ocn / tokensToMint);\n        return tokensToMint;\n    }\n\n    function sellDrops(uint256 _drops) public returns (uint256 _ocn) {\n        uint256 ocnAmount = calculateSaleReturn(ndrops, nOcean / scale, reserveRatio, _drops) * scale;\n        ndrops = ndrops.sub(_drops);\n        nOcean = nOcean.sub(ocnAmount);\n\n        totalSupply = totalSupply.sub(_drops);\n        poolBalance = poolBalance.sub(ocnAmount);\n\n        balances[msg.sender] = balances[msg.sender].add(ocnAmount);\n        drops[msg.sender] = drops[msg.sender].sub(_drops);\n\n        emit TokenSellDrops(msg.sender, ocnAmount, _drops, ocnAmount / _drops);\n        return ocnAmount;\n    }\n\n}\n",
    "sourcePath": "/Users/jonassnellinckx/Projects/OpenSource/OceanProtocol/bondingCurvesUX/contract/contracts/BondingCurve.sol",
    "compiler": {
        "name": "solc",
        "version": "0.4.24+commit.e67f0147.Emscripten.clang"
    },
    "schemaVersion": "2.0.1",
    "updatedAt": "2018-10-17T18:43:26.353Z"
}