{
  "contractName": "BondingCurve",
  "abi": [
    {
      "constant": true,
      "inputs": [],
      "name": "reserveRatio",
      "outputs": [
        {
          "name": "",
          "type": "uint32"
        }
      ],
      "payable": false,
      "stateMutability": "view",
      "type": "function"
    },
    {
      "constant": true,
      "inputs": [],
      "name": "totalSupply",
      "outputs": [
        {
          "name": "",
          "type": "uint256"
        }
      ],
      "payable": false,
      "stateMutability": "view",
      "type": "function"
    },
    {
      "constant": true,
      "inputs": [],
      "name": "ndrops",
      "outputs": [
        {
          "name": "",
          "type": "uint256"
        }
      ],
      "payable": false,
      "stateMutability": "view",
      "type": "function"
    },
    {
      "constant": true,
      "inputs": [
        {
          "name": "_supply",
          "type": "uint256"
        },
        {
          "name": "_connectorBalance",
          "type": "uint256"
        },
        {
          "name": "_connectorWeight",
          "type": "uint32"
        },
        {
          "name": "_depositAmount",
          "type": "uint256"
        }
      ],
      "name": "calculatePurchaseReturn",
      "outputs": [
        {
          "name": "",
          "type": "uint256"
        }
      ],
      "payable": false,
      "stateMutability": "view",
      "type": "function"
    },
    {
      "constant": true,
      "inputs": [
        {
          "name": "_supply",
          "type": "uint256"
        },
        {
          "name": "_connectorBalance",
          "type": "uint256"
        },
        {
          "name": "_connectorWeight",
          "type": "uint32"
        },
        {
          "name": "_sellAmount",
          "type": "uint256"
        }
      ],
      "name": "calculateSaleReturn",
      "outputs": [
        {
          "name": "",
          "type": "uint256"
        }
      ],
      "payable": false,
      "stateMutability": "view",
      "type": "function"
    },
    {
      "constant": true,
      "inputs": [],
      "name": "version",
      "outputs": [
        {
          "name": "",
          "type": "string"
        }
      ],
      "payable": false,
      "stateMutability": "view",
      "type": "function"
    },
    {
      "constant": false,
      "inputs": [],
      "name": "renounceOwnership",
      "outputs": [],
      "payable": false,
      "stateMutability": "nonpayable",
      "type": "function"
    },
    {
      "constant": true,
      "inputs": [],
      "name": "owner",
      "outputs": [
        {
          "name": "",
          "type": "address"
        }
      ],
      "payable": false,
      "stateMutability": "view",
      "type": "function"
    },
    {
      "constant": true,
      "inputs": [],
      "name": "poolBalance",
      "outputs": [
        {
          "name": "",
          "type": "uint256"
        }
      ],
      "payable": false,
      "stateMutability": "view",
      "type": "function"
    },
    {
      "constant": true,
      "inputs": [],
      "name": "mToken",
      "outputs": [
        {
          "name": "",
          "type": "address"
        }
      ],
      "payable": false,
      "stateMutability": "view",
      "type": "function"
    },
    {
      "constant": true,
      "inputs": [],
      "name": "nOcean",
      "outputs": [
        {
          "name": "",
          "type": "uint256"
        }
      ],
      "payable": false,
      "stateMutability": "view",
      "type": "function"
    },
    {
      "constant": true,
      "inputs": [],
      "name": "tokensToMint",
      "outputs": [
        {
          "name": "",
          "type": "uint256"
        }
      ],
      "payable": false,
      "stateMutability": "view",
      "type": "function"
    },
    {
      "constant": true,
      "inputs": [],
      "name": "ghostSupply",
      "outputs": [
        {
          "name": "",
          "type": "uint256"
        }
      ],
      "payable": false,
      "stateMutability": "view",
      "type": "function"
    },
    {
      "constant": false,
      "inputs": [
        {
          "name": "_newOwner",
          "type": "address"
        }
      ],
      "name": "transferOwnership",
      "outputs": [],
      "payable": false,
      "stateMutability": "nonpayable",
      "type": "function"
    },
    {
      "constant": true,
      "inputs": [],
      "name": "scale",
      "outputs": [
        {
          "name": "",
          "type": "uint256"
        }
      ],
      "payable": false,
      "stateMutability": "view",
      "type": "function"
    },
    {
      "inputs": [
        {
          "name": "_tokenAddress",
          "type": "address"
        }
      ],
      "payable": false,
      "stateMutability": "nonpayable",
      "type": "constructor"
    },
    {
      "anonymous": false,
      "inputs": [
        {
          "indexed": true,
          "name": "_requester",
          "type": "address"
        },
        {
          "indexed": false,
          "name": "amount",
          "type": "uint256"
        }
      ],
      "name": "TokenWithdraw",
      "type": "event"
    },
    {
      "anonymous": false,
      "inputs": [
        {
          "indexed": true,
          "name": "_requester",
          "type": "address"
        },
        {
          "indexed": false,
          "name": "_ocn",
          "type": "uint256"
        },
        {
          "indexed": false,
          "name": "_drops",
          "type": "uint256"
        },
        {
          "indexed": false,
          "name": "_price",
          "type": "uint256"
        }
      ],
      "name": "TokenBuyDrops",
      "type": "event"
    },
    {
      "anonymous": false,
      "inputs": [
        {
          "indexed": true,
          "name": "_requester",
          "type": "address"
        },
        {
          "indexed": false,
          "name": "_ocn",
          "type": "uint256"
        },
        {
          "indexed": false,
          "name": "_drops",
          "type": "uint256"
        },
        {
          "indexed": false,
          "name": "_price",
          "type": "uint256"
        }
      ],
      "name": "TokenSellDrops",
      "type": "event"
    },
    {
      "anonymous": false,
      "inputs": [
        {
          "indexed": true,
          "name": "previousOwner",
          "type": "address"
        }
      ],
      "name": "OwnershipRenounced",
      "type": "event"
    },
    {
      "anonymous": false,
      "inputs": [
        {
          "indexed": true,
          "name": "previousOwner",
          "type": "address"
        },
        {
          "indexed": true,
          "name": "newOwner",
          "type": "address"
        }
      ],
      "name": "OwnershipTransferred",
      "type": "event"
    },
    {
      "constant": true,
      "inputs": [],
      "name": "dropsBalance",
      "outputs": [
        {
          "name": "",
          "type": "uint256"
        }
      ],
      "payable": false,
      "stateMutability": "view",
      "type": "function"
    },
    {
      "constant": true,
      "inputs": [],
      "name": "dropsSupply",
      "outputs": [
        {
          "name": "",
          "type": "uint256"
        }
      ],
      "payable": false,
      "stateMutability": "view",
      "type": "function"
    },
    {
      "constant": true,
      "inputs": [],
      "name": "tokenBalance",
      "outputs": [
        {
          "name": "",
          "type": "uint256"
        }
      ],
      "payable": false,
      "stateMutability": "view",
      "type": "function"
    },
    {
      "constant": false,
      "inputs": [
        {
          "name": "amount",
          "type": "uint256"
        }
      ],
      "name": "requestTokens",
      "outputs": [
        {
          "name": "",
          "type": "uint256"
        }
      ],
      "payable": false,
      "stateMutability": "nonpayable",
      "type": "function"
    },
    {
      "constant": false,
      "inputs": [],
      "name": "withdraw",
      "outputs": [
        {
          "name": "",
          "type": "bool"
        }
      ],
      "payable": false,
      "stateMutability": "nonpayable",
      "type": "function"
    },
    {
      "constant": false,
      "inputs": [
        {
          "name": "_ocn",
          "type": "uint256"
        }
      ],
      "name": "buyDrops",
      "outputs": [
        {
          "name": "_drops",
          "type": "uint256"
        }
      ],
      "payable": false,
      "stateMutability": "nonpayable",
      "type": "function"
    },
    {
      "constant": false,
      "inputs": [
        {
          "name": "_drops",
          "type": "uint256"
        }
      ],
      "name": "sellDrops",
      "outputs": [
        {
          "name": "_ocn",
          "type": "uint256"
        }
      ],
      "payable": false,
      "stateMutability": "nonpayable",
      "type": "function"
    }
  ],
  "bytecode": "0x60806040526040805190810160405280600381526020017f302e3300000000000000000000000000000000000000000000000000000000008152506000908051906020019062000051929190620011da565b506040805190810160405280600381526020017f302e330000000000000000000000000000000000000000000000000000000000815250608190805190602001906200009f929190620011da565b50670de0b6b3a76400006086556064608755600a608855608654600102608955620dbba0608a60006101000a81548163ffffffff021916908363ffffffff1602179055506000608b55608854608c55608654600102608d553480156200010457600080fd5b506040516020806200310183398101806040528101908080519060200190929190505050701c35fedd14ffffffffffffffffffffffff600160206080811015156200014b57fe5b0181905550701b0ce43b323fffffffffffffffffffffff600160216080811015156200017357fe5b01819055507019f0028ec1ffffffffffffffffffffffff600160226080811015156200019b57fe5b01819055507018ded91f0e7fffffffffffffffffffffff60016023608081101515620001c357fe5b01819055507017d8ec7f0417ffffffffffffffffffffff60016024608081101515620001eb57fe5b01819055507016ddc6556cdbffffffffffffffffffffff600160256080811015156200021357fe5b01819055507015ecf52776a1ffffffffffffffffffffff600160266080811015156200023b57fe5b01819055507015060c256cb2ffffffffffffffffffffff600160276080811015156200026357fe5b0181905550701428a2f98d72ffffffffffffffffffffff600160286080811015156200028b57fe5b01819055507013545598e5c23fffffffffffffffffffff60016029608081101515620002b357fe5b0181905550701288c4161ce1dfffffffffffffffffffff6001602a608081101515620002db57fe5b01819055507011c592761c666fffffffffffffffffffff6001602b6080811015156200030357fe5b018190555070110a688680a757ffffffffffffffffffff6001602c6080811015156200032b57fe5b0181905550701056f1b5bedf77ffffffffffffffffffff6001602d6080811015156200035357fe5b0181905550700faadceceeff8bffffffffffffffffffff6001602e6080811015156200037b57fe5b0181905550700f05dc6b27edadffffffffffffffffffff6001602f608081101515620003a357fe5b0181905550700e67a5a25da4107fffffffffffffffffff60016030608081101515620003cb57fe5b0181905550700dcff115b14eedffffffffffffffffffff60016031608081101515620003f357fe5b0181905550700d3e7a392431239fffffffffffffffffff600160326080811015156200041b57fe5b0181905550700cb2ff529eb71e4fffffffffffffffffff600160336080811015156200044357fe5b0181905550700c2d415c3db974afffffffffffffffffff600160346080811015156200046b57fe5b0181905550700bad03e7d883f69bffffffffffffffffff600160356080811015156200049357fe5b0181905550700b320d03b2c343d5ffffffffffffffffff60016036608081101515620004bb57fe5b0181905550700abc25204e02828dffffffffffffffffff60016037608081101515620004e357fe5b0181905550700a4b16f74ee4bb207fffffffffffffffff600160386080811015156200050b57fe5b01819055507009deaf736ac1f569ffffffffffffffffff600160396080811015156200053357fe5b0181905550700976bd9952c7aa957fffffffffffffffff6001603a6080811015156200055b57fe5b01819055507009131271922eaa606fffffffffffffffff6001603b6080811015156200058357fe5b01819055507008b380f3558668c46fffffffffffffffff6001603c608081101515620005ab57fe5b0181905550700857ddf0117efa215bffffffffffffffff6001603d608081101515620005d357fe5b01819055507007ffffffffffffffffffffffffffffffff6001603e608081101515620005fb57fe5b01819055507007abbf6f6abb9d087fffffffffffffffff6001603f6080811015156200062357fe5b018190555070075af62cbac95f7dfa7fffffffffffffff600160406080811015156200064b57fe5b018190555070070d7fb7452e187ac13fffffffffffffff600160416080811015156200067357fe5b01819055507006c3390ecc8af379295fffffffffffffff600160426080811015156200069b57fe5b018190555070067c00a3b07ffc01fd6fffffffffffffff60016043608081101515620006c357fe5b0181905550700637b647c39cbb9d3d27ffffffffffffff60016044608081101515620006eb57fe5b01819055507005f63b1fc104dbd39587ffffffffffffff600160456080811015156200071357fe5b01819055507005b771955b36e12f7235ffffffffffffff600160466080811015156200073b57fe5b018190555070057b3d49dda84556d6f6ffffffffffffff600160476080811015156200076357fe5b018190555070054183095b2c8ececf30ffffffffffffff600160486080811015156200078b57fe5b018190555070050a28be635ca2b888f77fffffffffffff60016049608081101515620007b357fe5b01819055507004d5156639708c9db33c3fffffffffffff6001604a608081101515620007db57fe5b01819055507004a23105873875bd52dfdfffffffffffff6001604b6080811015156200080357fe5b0181905550700471649d87199aa990756fffffffffffff6001604c6080811015156200082b57fe5b01819055507004429a21a029d4c1457cfbffffffffffff6001604d6080811015156200085357fe5b0181905550700415bc6d6fb7dd71af2cb3ffffffffffff6001604e6080811015156200087b57fe5b01819055507003eab73b3bbfe282243ce1ffffffffffff6001604f608081101515620008a357fe5b01819055507003c1771ac9fb6b4c18e229ffffffffffff60016050608081101515620008cb57fe5b0181905550700399e96897690418f785257fffffffffff60016051608081101515620008f357fe5b0181905550700373fc456c53bb779bf0ea9fffffffffff600160526080811015156200091b57fe5b018190555070034f9e8e490c48e67e6ab8bfffffffffff600160536080811015156200094357fe5b018190555070032cbfd4a7adc790560b3337ffffffffff600160546080811015156200096b57fe5b018190555070030b50570f6e5d2acca94613ffffffffff600160556080811015156200099357fe5b01819055507002eb40f9f620fda6b56c2861ffffffffff60016056608081101515620009bb57fe5b01819055507002cc8340ecb0d0f520a6af58ffffffffff60016057608081101515620009e357fe5b01819055507002af09481380a0a35cf1ba02ffffffffff6001605860808110151562000a0b57fe5b0181905550700292c5bdd3b92ec810287b1b3fffffffff6001605960808110151562000a3357fe5b0181905550700277abdcdab07d5a77ac6d6b9fffffffff6001605a60808110151562000a5b57fe5b018190555070025daf6654b1eaa55fd64df5efffffffff6001605b60808110151562000a8357fe5b0181905550700244c49c648baa98192dce88b7ffffffff6001605c60808110151562000aab57fe5b018190555070022ce03cd5619a311b2471268bffffffff6001605d60808110151562000ad357fe5b0181905550700215f77c045fbe885654a44a0fffffffff6001605e60808110151562000afb57fe5b01819055507001ffffffffffffffffffffffffffffffff6001605f60808110151562000b2357fe5b01819055507001eaefdbdaaee7421fc4d3ede5ffffffff6001606060808110151562000b4b57fe5b01819055507001d6bd8b2eb257df7e8ca57b09bfffffff6001606160808110151562000b7357fe5b01819055507001c35fedd14b861eb0443f7f133fffffff6001606260808110151562000b9b57fe5b01819055507001b0ce43b322bcde4a56e8ada5afffffff6001606360808110151562000bc357fe5b018190555070019f0028ec1fff007f5a195a39dfffffff6001606460808110151562000beb57fe5b018190555070018ded91f0e72ee74f49b15ba527ffffff6001606560808110151562000c1357fe5b018190555070017d8ec7f04136f4e5615fd41a63ffffff6001606660808110151562000c3b57fe5b018190555070016ddc6556cdb84bdc8d12d22e6fffffff6001606760808110151562000c6357fe5b018190555070015ecf52776a1155b5bd8395814f7fffff6001606860808110151562000c8b57fe5b018190555070015060c256cb23b3b3cc3754cf40ffffff6001606960808110151562000cb357fe5b01819055507001428a2f98d728ae223ddab715be3fffff6001606a60808110151562000cdb57fe5b018190555070013545598e5c23276ccf0ede68034fffff6001606b60808110151562000d0357fe5b01819055507001288c4161ce1d6f54b7f61081194fffff6001606c60808110151562000d2b57fe5b018190555070011c592761c666aa641d5a01a40f17ffff6001606d60808110151562000d5357fe5b0181905550700110a688680a7530515f3e6e6cfdcdffff6001606e60808110151562000d7b57fe5b01819055507001056f1b5bedf75c6bcb2ce8aed428ffff6001606f60808110151562000da357fe5b01819055506ffaadceceeff8a0890f3875f008277fff6001607060808110151562000dca57fe5b01819055506ff05dc6b27edad306388a600f6ba0bfff6001607160808110151562000df157fe5b01819055506fe67a5a25da41063de1495d5b18cdbfff6001607260808110151562000e1857fe5b01819055506fdcff115b14eedde6fc3aa5353f2e4fff6001607360808110151562000e3f57fe5b01819055506fd3e7a3924312399f9aae2e0f868f8fff6001607460808110151562000e6657fe5b01819055506fcb2ff529eb71e41582cccd5a1ee26fff6001607560808110151562000e8d57fe5b01819055506fc2d415c3db974ab32a51840c0b67edff6001607660808110151562000eb457fe5b01819055506fbad03e7d883f69ad5b0a186184e06bff6001607760808110151562000edb57fe5b01819055506fb320d03b2c343d4829abd6075f0cc5ff6001607860808110151562000f0257fe5b01819055506fabc25204e02828d73c6e80bcdb1a95bf6001607960808110151562000f2957fe5b01819055506fa4b16f74ee4bb2040a1ec6c15fbbf2df6001607a60808110151562000f5057fe5b01819055506f9deaf736ac1f569deb1b5ae3f36c130f6001607b60808110151562000f7757fe5b01819055506f976bd9952c7aa957f5937d790ef650376001607c60808110151562000f9e57fe5b01819055506f9131271922eaa6064b73a22d0bd4f2bf6001607d60808110151562000fc557fe5b01819055506f8b380f3558668c46c91c49a2f8e967b96001607e60808110151562000fec57fe5b01819055506f857ddf0117efa215952912839f6473e66001607f6080811015156200101357fe5b018190555033608260006101000a81548173ffffffffffffffffffffffffffffffffffffffff021916908373ffffffffffffffffffffffffffffffffffffffff160217905550600073ffffffffffffffffffffffffffffffffffffffff168173ffffffffffffffffffffffffffffffffffffffff16141515156200109657600080fd5b80608360006101000a81548173ffffffffffffffffffffffffffffffffffffffff021916908373ffffffffffffffffffffffffffffffffffffffff160217905550608360009054906101000a900473ffffffffffffffffffffffffffffffffffffffff1673ffffffffffffffffffffffffffffffffffffffff1663718da7ee306040518263ffffffff167c0100000000000000000000000000000000000000000000000000000000028152600401808273ffffffffffffffffffffffffffffffffffffffff1673ffffffffffffffffffffffffffffffffffffffff168152602001915050602060405180830381600087803b1580156200119557600080fd5b505af1158015620011aa573d6000803e3d6000fd5b505050506040513d6020811015620011c157600080fd5b8101908080519060200190929190505050505062001289565b828054600181600116156101000203166002900490600052602060002090601f016020900481019282601f106200121d57805160ff19168380011785556200124e565b828001600101855582156200124e579182015b828111156200124d57825182559160200191906001019062001230565b5b5090506200125d919062001261565b5090565b6200128691905b808211156200128257600081600090555060010162001268565b5090565b90565b611e6880620012996000396000f300608060405260043610610128576000357c0100000000000000000000000000000000000000000000000000000000900463ffffffff1680630c7d5cd81461012d578063101f7d571461016457806315f500c21461018f57806318160ddd146101d05780631f64e447146101fb57806329a00e7c146102265780633ccfd60b1461028b57806349f9b0f7146102ba57806354fd4d501461031f5780636eaa5c22146103af578063715018a6146103da578063878f6b06146103f15780638da5cb5b1461043257806396365d44146104895780639e1a4d19146104b4578063c3b6f939146104df578063c9945f1314610536578063cbafee8a14610561578063e35446071461058c578063eef9c27c146105b7578063f2fde38b146105f8578063f51e181a1461063b575b600080fd5b34801561013957600080fd5b50610142610666565b604051808263ffffffff1663ffffffff16815260200191505060405180910390f35b34801561017057600080fd5b5061017961067c565b6040518082815260200191505060405180910390f35b34801561019b57600080fd5b506101ba600480360381019080803590602001909291905050506106e8565b6040518082815260200191505060405180910390f35b3480156101dc57600080fd5b506101e5610928565b6040518082815260200191505060405180910390f35b34801561020757600080fd5b5061021061092e565b6040518082815260200191505060405180910390f35b34801561023257600080fd5b506102756004803603810190808035906020019092919080359060200190929190803563ffffffff16906020019092919080359060200190929190505050610934565b6040518082815260200191505060405180910390f35b34801561029757600080fd5b506102a0610a35565b604051808215151515815260200191505060405180910390f35b3480156102c657600080fd5b506103096004803603810190808035906020019092919080359060200190929190803563ffffffff16906020019092919080359060200190929190505050610c20565b6040518082815260200191505060405180910390f35b34801561032b57600080fd5b50610334610d54565b6040518080602001828103825283818151815260200191508051906020019080838360005b83811015610374578082015181840152602081019050610359565b50505050905090810190601f1680156103a15780820380516001836020036101000a031916815260200191505b509250505060405180910390f35b3480156103bb57600080fd5b506103c4610df2565b6040518082815260200191505060405180910390f35b3480156103e657600080fd5b506103ef610e00565b005b3480156103fd57600080fd5b5061041c60048036038101908080359060200190929190505050610f05565b6040518082815260200191505060405180910390f35b34801561043e57600080fd5b50610447611330565b604051808273ffffffffffffffffffffffffffffffffffffffff1673ffffffffffffffffffffffffffffffffffffffff16815260200191505060405180910390f35b34801561049557600080fd5b5061049e611356565b6040518082815260200191505060405180910390f35b3480156104c057600080fd5b506104c961135c565b6040518082815260200191505060405180910390f35b3480156104eb57600080fd5b506104f46113a3565b604051808273ffffffffffffffffffffffffffffffffffffffff1673ffffffffffffffffffffffffffffffffffffffff16815260200191505060405180910390f35b34801561054257600080fd5b5061054b6113c9565b6040518082815260200191505060405180910390f35b34801561056d57600080fd5b506105766113cf565b6040518082815260200191505060405180910390f35b34801561059857600080fd5b506105a16113d5565b6040518082815260200191505060405180910390f35b3480156105c357600080fd5b506105e2600480360381019080803590602001909291905050506113db565b6040518082815260200191505060405180910390f35b34801561060457600080fd5b50610639600480360381019080803573ffffffffffffffffffffffffffffffffffffffff169060200190929190505050611515565b005b34801561064757600080fd5b5061065061157d565b6040518082815260200191505060405180910390f35b608a60009054906101000a900463ffffffff1681565b6000803373ffffffffffffffffffffffffffffffffffffffff16141515156106a357600080fd5b608560003373ffffffffffffffffffffffffffffffffffffffff1673ffffffffffffffffffffffffffffffffffffffff16815260200190815260200160002054905090565b60008060865461071d608c54608654608d5481151561070357fe5b04608a60009054906101000a900463ffffffff1687610c20565b02905061073583608c5461158390919063ffffffff16565b608c8190555061075081608d5461158390919063ffffffff16565b608d8190555061076b8360875461158390919063ffffffff16565b6087819055506107868160895461158390919063ffffffff16565b6089819055506107de81608460003373ffffffffffffffffffffffffffffffffffffffff1673ffffffffffffffffffffffffffffffffffffffff1681526020019081526020016000205461159c90919063ffffffff16565b608460003373ffffffffffffffffffffffffffffffffffffffff1673ffffffffffffffffffffffffffffffffffffffff1681526020019081526020016000208190555061087383608560003373ffffffffffffffffffffffffffffffffffffffff1673ffffffffffffffffffffffffffffffffffffffff1681526020019081526020016000205461158390919063ffffffff16565b608560003373ffffffffffffffffffffffffffffffffffffffff1673ffffffffffffffffffffffffffffffffffffffff168152602001908152602001600020819055503373ffffffffffffffffffffffffffffffffffffffff167f83012f240e057db770ba6087edbe0353d4c2a904f94357f4ded5c40714eac4c0828586858115156108fb57fe5b0460405180848152602001838152602001828152602001935050505060405180910390a280915050919050565b60875481565b608c5481565b6000806000806000808911801561094b5750600088115b801561095d575060008763ffffffff16115b80156109785750620f424063ffffffff168763ffffffff1611155b151561098357600080fd5b60008614156109955760009450610a29565b620f424063ffffffff168763ffffffff1614156109d8576109d1886109c3888c6115b890919063ffffffff16565b6115f090919063ffffffff16565b9450610a29565b6109eb888761159c90919063ffffffff16565b91506109fc828989620f4240611606565b80945081955050508260ff16610a1b858b6115b890919063ffffffff16565b9060020a9004905088810394505b50505050949350505050565b600080608460003373ffffffffffffffffffffffffffffffffffffffff1673ffffffffffffffffffffffffffffffffffffffff1681526020019081526020016000205490506000608460003373ffffffffffffffffffffffffffffffffffffffff1673ffffffffffffffffffffffffffffffffffffffff16815260200190815260200160002081905550608360009054906101000a900473ffffffffffffffffffffffffffffffffffffffff1673ffffffffffffffffffffffffffffffffffffffff1663a9059cbb33836040518363ffffffff167c0100000000000000000000000000000000000000000000000000000000028152600401808373ffffffffffffffffffffffffffffffffffffffff1673ffffffffffffffffffffffffffffffffffffffff16815260200182815260200192505050602060405180830381600087803b158015610b8457600080fd5b505af1158015610b98573d6000803e3d6000fd5b505050506040513d6020811015610bae57600080fd5b81019080805190602001909291905050501515610bca57600080fd5b3373ffffffffffffffffffffffffffffffffffffffff167f68577e4d693c1b056a60bc4e39438810239a0bfe64869c4eb7e3baebb5f65634826040518082815260200191505060405180910390a2600191505090565b60008060008060008060008a118015610c395750600089115b8015610c4b575060008863ffffffff16115b8015610c665750620f424063ffffffff168863ffffffff1611155b8015610c725750898711155b1515610c7d57600080fd5b6000871415610c8f5760009550610d47565b89871415610c9f57889550610d47565b620f424063ffffffff168863ffffffff161415610ce257610cdb8a610ccd898c6115b890919063ffffffff16565b6115f090919063ffffffff16565b9550610d47565b868a039250610cf68a84620f42408b611606565b8095508196505050610d11858a6115b890919063ffffffff16565b91508360ff16899060020a029050610d4485610d36838561158390919063ffffffff16565b6115f090919063ffffffff16565b95505b5050505050949350505050565b60818054600181600116156101000203166002900480601f016020809104026020016040519081016040528092919081815260200182805460018160011615610100020316600290048015610dea5780601f10610dbf57610100808354040283529160200191610dea565b820191906000526020600020905b815481529060010190602001808311610dcd57829003601f168201915b505050505081565b6000608854608c5403905090565b608260009054906101000a900473ffffffffffffffffffffffffffffffffffffffff1673ffffffffffffffffffffffffffffffffffffffff163373ffffffffffffffffffffffffffffffffffffffff16141515610e5c57600080fd5b608260009054906101000a900473ffffffffffffffffffffffffffffffffffffffff1673ffffffffffffffffffffffffffffffffffffffff167ff8df31144d9c2f0f6b59d69b8b98abd5459d07f2742c4df920b25aae33c6482060405160405180910390a26000608260006101000a81548173ffffffffffffffffffffffffffffffffffffffff021916908373ffffffffffffffffffffffffffffffffffffffff160217905550565b6000610f43608c54608654608d54811515610f1c57fe5b04608a60009054906101000a900463ffffffff1660865486811515610f3d57fe5b04610934565b608b81905550610f60608b54608c5461159c90919063ffffffff16565b608c81905550610f7b82608d5461159c90919063ffffffff16565b608d81905550610fd382608460003373ffffffffffffffffffffffffffffffffffffffff1673ffffffffffffffffffffffffffffffffffffffff1681526020019081526020016000205461159c90919063ffffffff16565b608460003373ffffffffffffffffffffffffffffffffffffffff1673ffffffffffffffffffffffffffffffffffffffff16815260200190815260200160002081905550608360009054906101000a900473ffffffffffffffffffffffffffffffffffffffff1673ffffffffffffffffffffffffffffffffffffffff166323b872dd3330856040518463ffffffff167c0100000000000000000000000000000000000000000000000000000000028152600401808473ffffffffffffffffffffffffffffffffffffffff1673ffffffffffffffffffffffffffffffffffffffff1681526020018373ffffffffffffffffffffffffffffffffffffffff1673ffffffffffffffffffffffffffffffffffffffff1681526020018281526020019350505050602060405180830381600087803b15801561110f57600080fd5b505af1158015611123573d6000803e3d6000fd5b505050506040513d602081101561113957600080fd5b8101908080519060200190929190505050151561115557600080fd5b61116c608b5460875461159c90919063ffffffff16565b6087819055506111878260895461159c90919063ffffffff16565b6089819055506111df82608460003373ffffffffffffffffffffffffffffffffffffffff1673ffffffffffffffffffffffffffffffffffffffff1681526020019081526020016000205461158390919063ffffffff16565b608460003373ffffffffffffffffffffffffffffffffffffffff1673ffffffffffffffffffffffffffffffffffffffff16815260200190815260200160002081905550611276608b54608560003373ffffffffffffffffffffffffffffffffffffffff1673ffffffffffffffffffffffffffffffffffffffff1681526020019081526020016000205461159c90919063ffffffff16565b608560003373ffffffffffffffffffffffffffffffffffffffff1673ffffffffffffffffffffffffffffffffffffffff168152602001908152602001600020819055503373ffffffffffffffffffffffffffffffffffffffff167f04b6655d1eed78cc9a68dbe5650a9f4e8feb2803c74da054d3f502eff69c3a9f83608b54608b548681151561130257fe5b0460405180848152602001838152602001828152602001935050505060405180910390a2608b549050919050565b608260009054906101000a900473ffffffffffffffffffffffffffffffffffffffff1681565b60895481565b6000608460003373ffffffffffffffffffffffffffffffffffffffff1673ffffffffffffffffffffffffffffffffffffffff16815260200190815260200160002054905090565b608360009054906101000a900473ffffffffffffffffffffffffffffffffffffffff1681565b608d5481565b608b5481565b60885481565b6000803373ffffffffffffffffffffffffffffffffffffffff161415151561140257600080fd5b608360009054906101000a900473ffffffffffffffffffffffffffffffffffffffff1673ffffffffffffffffffffffffffffffffffffffff1663a9059cbb33846040518363ffffffff167c0100000000000000000000000000000000000000000000000000000000028152600401808373ffffffffffffffffffffffffffffffffffffffff1673ffffffffffffffffffffffffffffffffffffffff16815260200182815260200192505050602060405180830381600087803b1580156114c757600080fd5b505af11580156114db573d6000803e3d6000fd5b505050506040513d60208110156114f157600080fd5b8101908080519060200190929190505050151561150d57600080fd5b819050919050565b608260009054906101000a900473ffffffffffffffffffffffffffffffffffffffff1673ffffffffffffffffffffffffffffffffffffffff163373ffffffffffffffffffffffffffffffffffffffff1614151561157157600080fd5b61157a81611663565b50565b60865481565b600082821115151561159157fe5b818303905092915050565b600081830190508281101515156115af57fe5b80905092915050565b6000808314156115cb57600090506115ea565b81830290508183828115156115dc57fe5b041415156115e657fe5b8090505b92915050565b600081838115156115fd57fe5b04905092915050565b6000806000808463ffffffff168663ffffffff166116248a8a61175f565b0281151561162e57fe5b04915061163a826118c6565b905061165381607f0360ff16839060020a900482611986565b8193509350505094509492505050565b600073ffffffffffffffffffffffffffffffffffffffff168173ffffffffffffffffffffffffffffffffffffffff161415151561169f57600080fd5b8073ffffffffffffffffffffffffffffffffffffffff16608260009054906101000a900473ffffffffffffffffffffffffffffffffffffffff1673ffffffffffffffffffffffffffffffffffffffff167f8be0079c531659141344cd1fd0a4f28419497f9722a3daafe3b4186f6b6457e060405160405180910390a380608260006101000a81548173ffffffffffffffffffffffffffffffffffffffff021916908373ffffffffffffffffffffffffffffffffffffffff16021790555050565b60008060008060007001ffffffffffffffffffffffffffffffff871115151561178457fe5b60009350856f8000000000000000000000000000000088028115156117a557fe5b0492507001000000000000000000000000000000008310151561180e576117e66f80000000000000000000000000000000848115156117e057fe5b04611daa565b91508160ff16839060020a900492506f800000000000000000000000000000008260ff160293505b6f8000000000000000000000000000000083111561189c57607f90505b60008160ff16111561189b576f8000000000000000000000000000000083840281151561185457fe5b0492507001000000000000000000000000000000008310151561188f576001839060020a900492506001810360ff1660019060020a02840193505b8060019003905061182b565b5b607a60ff166f02c5c85fdf473de6af278ece600fcbda85029060020a900494505050505092915050565b60008060008060209250607f91505b8160ff166001840160ff16101561192757600282840160ff168115156118f757fe5b0490508460018260ff1660808110151561190d57fe5b015410151561191e57809250611922565b8091505b6118d5565b8460018360ff1660808110151561193a57fe5b015410151561194b5781935061197e565b8460018460ff1660808110151561195e57fe5b015410151561196f5782935061197e565b6000151561197957fe5b600093505b505050919050565b6000806000849150600090508360ff168583029060020a900491506f03442c4e6074a82f1797f72ac00000008202810190508360ff168583029060020a900491506f0116b96f757c380fb287fd0e400000008202810190508360ff168583029060020a900491506e45ae5bdd5f0e03eca1ff43900000008202810190508360ff168583029060020a900491506e0defabf91302cd95b9ffda500000008202810190508360ff168583029060020a900491506e02529ca9832b22439efff9b80000008202810190508360ff168583029060020a900491506d54f1cf12bd04e516b6da880000008202810190508360ff168583029060020a900491506d0a9e39e257a09ca2d6db510000008202810190508360ff168583029060020a900491506d012e066e7b839fa050c3090000008202810190508360ff168583029060020a900491506c1e33d7d926c329a1ad1a8000008202810190508360ff168583029060020a900491506c02bee513bdb4a6b19b5f8000008202810190508360ff168583029060020a900491506b3a9316fa79b88eccf2a000008202810190508360ff168583029060020a900491506b048177ebe1fa8123752000008202810190508360ff168583029060020a900491506a5263fe90242dcbacf000008202810190508360ff168583029060020a900491506a057e22099c030d941000008202810190508360ff168583029060020a900491506957e22099c030d94100008202810190508360ff168583029060020a9004915069052b6b545699763100008202810190508360ff168583029060020a90049150684985f67696bf7480008202810190508360ff168583029060020a900491506803dea12ea99e4980008202810190508360ff168583029060020a900491506731880f2214b6e0008202810190508360ff168583029060020a9004915067025bcff56eb360008202810190508360ff168583029060020a90049150661b722e10ab10008202810190508360ff168583029060020a900491506601317c700770008202810190508360ff168583029060020a90049150650cba84aafa008202810190508360ff168583029060020a900491506482573a0a008202810190508360ff168583029060020a900491506405035ad9008202810190508360ff168583029060020a90049150632f881b008202810190508360ff168583029060020a900491506301b293408202810190508360ff168583029060020a90049150620efc408202810190508360ff168583029060020a90049150617fe08202810190508360ff168583029060020a900491506104208202810190508360ff168583029060020a9004915060218202810190508360ff168583029060020a9004915060018202810190508360ff1660019060020a02856f0688589cc0e9505e2f2fee558000000083811515611d9d57fe5b0401019250505092915050565b60008060008060009250849150610100821015611de6575b6001821115611de1576001829060020a90049150600183019250611dc2565b611e31565b608090505b60008160ff161115611e30578060ff1660019060020a0282101515611e1d578060ff16829060020a9004915080831792505b60018160ff169060020a90049050611deb565b5b8293505050509190505600a165627a7a723058205f6d3eb2ea88ea461bd4359f69107bdaac6f4714791ab5f8c7350797e1cf28a20029",
  "source": "pragma solidity ^0.4.24;\n\nimport './token/Token.sol';\nimport './bondingCurve/BancorFormula.sol';\n\nimport 'openzeppelin-solidity/contracts/math/SafeMath.sol';\nimport 'openzeppelin-solidity/contracts/ownership/Ownable.sol';\n\ncontract BondingCurve is BancorFormula, Ownable {\n\n    using SafeMath for uint256;\n    using SafeMath for uint;\n\n    // global variables\n    Token  public  mToken;\n    mapping (address => uint256) balances;\n    mapping (address => uint256) drops;\n\n    // bonding Curve\n    uint256 public scale = 10 ** 18;\n    uint256 public totalSupply = 100;\n    uint256 public ghostSupply = 10;\n    uint256 public poolBalance = 1 * scale;\n    uint32  public reserveRatio = 900000;\n    uint256 public tokensToMint = 0;\n    uint256 public ndrops = ghostSupply;\n    uint256 public nOcean = 1 * scale;\n\n    event TokenWithdraw(address indexed _requester, uint256 amount);\n    event TokenBuyDrops(address indexed _requester, uint256 _ocn, uint256 _drops, uint256 _price);\n    event TokenSellDrops(address indexed _requester, uint256 _ocn, uint256 _drops, uint256 _price);\n\n\n    ///////////////////////////////////////////////////////////////////\n    //  Query function\n    ///////////////////////////////////////////////////////////////////\n    function dropsBalance() public view returns (uint256){\n        require(msg.sender != 0x0);\n        return drops[msg.sender];\n    }\n\n    function dropsSupply() public view returns (uint256){\n        return ndrops - ghostSupply;\n    }\n\n    function tokenBalance() public view returns (uint256) {\n        return balances[msg.sender];\n    }\n    ///////////////////////////////////////////////////////////////////\n    //  Constructor function\n    ///////////////////////////////////////////////////////////////////\n    // 1. constructor\n    constructor(address _tokenAddress) public {\n        require(_tokenAddress != address(0));\n        // instantiate deployed Ocean token contract\n        mToken = Token(_tokenAddress);\n        // set the token receiver to be marketplace\n        mToken.setReceiver(address(this));\n    }\n\n    // 2. request initial fund transfer\n    function requestTokens(uint256 amount) public returns (uint256) {\n        require(msg.sender != 0x0);\n        require(mToken.transfer(msg.sender, amount));\n        return amount;\n    }\n\n\n    // 5. withdraw\n    function withdraw() public returns (bool) {\n        uint256 amount = balances[msg.sender];\n        balances[msg.sender] = 0;\n        require(mToken.transfer(msg.sender, amount));\n        emit TokenWithdraw(msg.sender, amount);\n        return true;\n    }\n\n    ///////////////////////////////////////////////////////////////////\n    // Bonding Curve Module\n    ///////////////////////////////////////////////////////////////////\n    function buyDrops(uint256 _ocn) public returns (uint256 _drops) {\n        tokensToMint = calculatePurchaseReturn(ndrops, nOcean / scale, reserveRatio, _ocn / scale);\n        ndrops = ndrops.add(tokensToMint);\n        nOcean = nOcean.add(_ocn);\n\n        balances[msg.sender] = balances[msg.sender].add(_ocn);\n        require(mToken.transferFrom(msg.sender, address(this), _ocn));\n\n        totalSupply = totalSupply.add(tokensToMint);\n        poolBalance = poolBalance.add(_ocn);\n\n        balances[msg.sender] = balances[msg.sender].sub(_ocn);\n        drops[msg.sender] = drops[msg.sender].add(tokensToMint);\n\n        emit TokenBuyDrops(msg.sender, _ocn, tokensToMint, _ocn / tokensToMint);\n        return tokensToMint;\n    }\n\n    function sellDrops(uint256 _drops) public returns (uint256 _ocn) {\n        uint256 ocnAmount = calculateSaleReturn(ndrops, nOcean / scale, reserveRatio, _drops) * scale;\n        ndrops = ndrops.sub(_drops);\n        nOcean = nOcean.sub(ocnAmount);\n\n        totalSupply = totalSupply.sub(_drops);\n        poolBalance = poolBalance.sub(ocnAmount);\n\n        balances[msg.sender] = balances[msg.sender].add(ocnAmount);\n        drops[msg.sender] = drops[msg.sender].sub(_drops);\n\n        emit TokenSellDrops(msg.sender, ocnAmount, _drops, ocnAmount / _drops);\n        return ocnAmount;\n    }\n\n}\n",
  "sourcePath": "/Users/santteegt/GitRepositories/clones/ocean-protocol/bondingCurvesUX/contract/contracts/BondingCurve.sol",
  "compiler": {
    "name": "solc",
    "version": "0.4.24+commit.e67f0147.Emscripten.clang"
  },
  "schemaVersion": "3.0.16",
  "updatedAt": "2019-11-06T17:42:01.368Z",
  "devdoc": {
    "methods": {
      "calculatePurchaseReturn(uint256,uint256,uint32,uint256)": {
        "details": "given a token supply, connector balance, weight and a deposit amount (in the connector token), calculates the return for a given conversion (in the main token)    * Formula: Return = _supply * ((1 + _depositAmount / _connectorBalance) ^ (_connectorWeight / 1000000) - 1)",
        "params": {
          "_connectorBalance": "total connector balance",
          "_connectorWeight": "connector weight, represented in ppm, 1-1000000",
          "_depositAmount": "deposit amount, in connector token",
          "_supply": "token total supply"
        },
        "return": "purchase return amount"
      },
      "calculateSaleReturn(uint256,uint256,uint32,uint256)": {
        "details": "given a token supply, connector balance, weight and a sell amount (in the main token), calculates the return for a given conversion (in the connector token)    * Formula: Return = _connectorBalance * (1 - (1 - _sellAmount / _supply) ^ (1 / (_connectorWeight / 1000000)))",
        "params": {
          "_connectorBalance": "total connector",
          "_connectorWeight": "constant connector Weight, represented in ppm, 1-1000000",
          "_sellAmount": "sell amount, in the token itself",
          "_supply": "token total supply"
        },
        "return": "sale return amount"
      },
      "renounceOwnership()": {
        "details": "Allows the current owner to relinquish control of the contract."
      },
      "transferOwnership(address)": {
        "details": "Allows the current owner to transfer control of the contract to a newOwner.",
        "params": {
          "_newOwner": "The address to transfer ownership to."
        }
      }
    }
  },
  "userdoc": {
    "methods": {
      "buyDrops(uint256)": {
        "notice": "////////////////////////////////////////////////////////////////"
      },
      "dropsBalance()": {
        "notice": "////////////////////////////////////////////////////////////////"
      },
      "renounceOwnership()": {
        "notice": "Renouncing to ownership will leave the contract without an owner. It will not be possible to call the functions with the `onlyOwner` modifier anymore."
      }
    }
  }
}